:020000040000FA
:0400000007EF00F016
:0A0008002182D4ED05F057EF07F058
:1008000000031F1F1F1F1F1F0000001F1F1F1F1F90
:100810001F000000001F1F1F1F1F00000000001FFF
:100820001F1F1F0000000000001F1F1F000000000E
:100830000000001F1F00000000000000001F00005B
:100840001F1F1F1F1F1F1F0000564F4C554D454EA9
:0B0850003A004D494E004D4158000099
:10085C00F29E93809382F288F18CF292D09EF28E6B
:10086C00000E8A6EA8EC07F0010E19EC07F0000ED2
:10087C00146E000E136E000E166E000E156E90ECBC
:10088C0007F0490E136E080E146ED1EC06F0030E31
:10089C001B6E8A0E1A6E560EE82EFED71A2EFCD739
:1008AC001B2EFAD7370E166E080E176E000E186E2A
:1008BC0075EC07F02E0E166E080E176E010E186EE4
:1008CC0075EC07F0250E166E080E176E020E186EDC
:1008DC0075EC07F01C0E166E080E176E030E186ED4
:1008EC0075EC07F0130E166E080E176E040E186ECC
:1008FC0075EC07F00A0E166E080E176E050E186EC4
:10090C0075EC07F0010E166E080E176E060E186EBB
:10091C0075EC07F0400E166E080E176E070E186E6B
:10092C0075EC07F00D0E1B6EAF0E1A6EB60EE82EA0
:10093C00FED71A2EFCD71B2EFAD700D01FBEAFEF56
:10094C0004F01F5008E11E04D8A0AFEF04F0B1EF83
:10095C0004F025EF05F0000E146E000E136E000E61
:10096C00166E000E156E90EC07F0490E136E080E05
:10097C00146ED1EC06F0030E1B6E8A0E1A6E560E18
:10098C00E82EFED71A2EFCD71B2EFAD7000E1D6EA2
:10099C00000E1C6E14EF05F01FBEE0EF04F01F50AC
:1009AC0007E1100E1E5CD8B0DEEF04F0E0EF04F0AF
:1009BC0000EF05F0000E146E010E136E1CC015F046
:1009CC001DC016F090EC07F0010E1C24D96E000E21
:1009DC001D20DA6EDF50A8EC06F0030E1B6E8A0E9B
:1009EC001A6E560EE82EFED71A2EFCD71B2EFAD7EF
:1009FC0012EF05F0000E146E010E136E000E166E43
:100A0C00000E156E90EC07F0560E136E080E146E59
:100A1C00D1EC06F0F3EF04F01C4A1D2A1E501C5CAE
:100A2C001D50800A1A6E1F50800A1A58D8A021EF48
:100A3C0005F023EF05F0D2EF04F0A4EF04F0000E64
:100A4C00146E000E136E000E166E000E156E90ECEA
:100A5C0007F0490E136E080E146ED1EC06F0030E5F
:100A6C001B6E8A0E1A6E560EE82EFED71A2EFCD767
:100A7C001B2EFAD7000E146E010E136E000E166E9E
:100A8C00000E156E90EC07F0520E136E080E146EDD
:100A9C00D1EC06F0030E1B6E8A0E1A6E560EE82E63
:100AAC00FED71A2EFCD71B2EFAD7A4EF04F007EFB3
:100ABC0000F0166EF00E8316F00E9516959C959A16
:100ACC0095988C9C8C9A8C98D6EC07F0300E19EC7F
:100ADC0007F000D000D000F0300E19EC07F000D079
:100AEC0000D000F0320E19EC07F0F6EC06F000091D
:100AFC00D8A483EF05F085EF05F07BEF05F0F6EC5D
:100B0C0006F00009D8A48DEF05F08FEF05F085EF06
:100B1C0005F0165019EC07F0F6EC06F00009D8A415
:100B2C009AEF05F09CEF05F092EF05F0080E19EC2A
:100B3C0007F0F6EC06F00009D8A4A7EF05F0A9EF32
:100B4C0005F09FEF05F00F0E19EC07F0F6EC06F030
:100B5C000009D8A4B4EF05F0B6EF05F0ACEF05F042
:100B6C00010E19EC07F0F6EC06F00009D8A4C1EF61
:100B7C0005F0C3EF05F0B9EF05F0040E19EC07F022
:100B8C00F6EC06F00009D8A4CEEF05F0D0EF05F096
:100B9C00C6EF05F0800E7BEC06F012000600F2A208
:100BAC00DAEF05F0DCEF05F03AEF06F0A60EE82ED2
:100BBC00FED700D081B0E5EF05F0E8EF05F0010EAF
:100BCC00E9EF05F0000E116E81B2EFEF05F0F2EFD8
:100BDC0005F0010EF3EF05F0000E111AD8B4F9EF81
:100BEC0005F0FBEF05F00DEF06F01FBE09EF06F068
:100BFC001F5007E1100E1E5CD8B007EF06F009EF8E
:100C0C0006F03AEF06F01E4A1F2A3AEF06F081B0C2
:100C1C0012EF06F015EF06F0010E16EF06F0000EBF
:100C2C00116E81B21CEF06F01FEF06F0010E20EFE3
:100C3C0006F0000E111AD8A426EF06F028EF06F0E5
:100C4C003AEF06F01FBE33EF06F01F5008E11E040A
:100C5C00D8A033EF06F035EF06F03AEF06F01E069B
:100C6C00D8A01F063AEF06F0010E38EC07F0F2920E
:100C7C0021921100156EF6EC06F00009D8A449EF8C
:100C8C0006F04BEF06F041EF06F0F00E9516F00E65
:100C9C0083161550126E136A400E1212000E1312A8
:100CAC00040E146E133413321232142E58EF06F055
:100CBC0012500F0B83128C9C8C9A00D000D000F039
:100CCC008C8800D000D000F08C98F00E8316155054
:100CDC000F0B831200D000D000F08C8800D000D015
:100CEC0000F08C980F0E95121200156EF00E9516E2
:100CFC00F00E83161550126E136A800E1212000E2F
:100D0C001312040E146E133413321232142E89EF94
:100D1C0006F012500F0B83128C9C8C9ABCEC07F0D3
:100D2C008C88BCEC07F08C98F00E831615500F0BCA
:100D3C008312BCEC07F08C88BCEC07F08C980F0E7F
:100D4C0095121200126EF6EC06F00009D8A4B1EF61
:100D5C0006F0B3EF06F0A9EF06F0F00E9516F00EC4
:100D6C00831612380F0B0F0B83128C8A8C9CBCECE5
:100D7C0007F08C88BCEC07F08C98F00E83161250A0
:100D8C000F0B8312BCEC07F08C88BCEC07F08C9832
:100D9C000F0E95121200E7EF06F0F6EC06F00009C4
:100DAC00D8A4DBEF06F0DDEF06F0D3EF06F013C0AE
:100DBC00F6FF14C0F7FF0800F550A8EC06F0134A34
:100DCC00142A13C0F6FF14C0F7FF0800F5500009F1
:100DDC00D8A4F3EF06F0F5EF06F0D3EF06F012000F
:100DEC008C8C8C9ABCEC07F08C88BCEC07F083A63E
:100DFC0002EF07F004EF07F00FEF07F08C98BCEC54
:100E0C0007F08C88BCEC07F08C988C9C010E18EFCA
:100E1C0007F08C98BCEC07F08C88BCEC07F08C9835
:100E2C008C9C000E1200126EF00E9516F00E8316AE
:100E3C0012380F0B0F0B83128C9C8C9ABCEC07F0A6
:100E4C008C88BCEC07F08C98F00E831612500F0BAC
:100E5C008312BCEC07F08C88BCEC07F08C980F0E5E
:100E6C0095121200106EF00E9516F00E83161038B7
:100E7C000F0B0F0B83128C9C8C9AC9EC07F08C888F
:100E8C00C9EC07F08C98F00E831610500F0B8312E0
:100E9C00C9EC07F08C88C9EC07F08C980F0E9512F2
:100EAC001200BC0EF66E0F0EF76E000EF86E00EE12
:100EBC0001F010EE0FF00900F5CFEEFFE550E15018
:100ECC00FAE1206A1F6A1E6A1D6A1C6A219021922F
:100EDC00000EF86E080EF76E00012EEF04F018509D
:100EEC00080DF35040EC06F0000E196E16C0F6FF1C
:100EFC0017C0F7FF0800F550A8EC06F0164A172AA1
:100F0C00192A070E19648DEF07F08FEF07F07CEFAD
:100F1C0007F0120014BE9BEF07F0145008E1130405
:100F2C00D8A09BEF07F09DEF07F0A3EF07F015504B
:100F3C00C00F19EC07F0A7EF07F01550800F19EC54
:100F4C0007F01200280E5FEC05F0F6EC06F0000935
:100F5C00D8A4B3EF07F0B5EF07F0ABEF07F0060E30
:100F6C0019EC07F00C0E19EC07F0120000F000F071
:100F7C0000F000F000F000F000F000F000F000F0E5
:100F8C0000F000F0120000F000F000F000F000F0B3
:100F9C0000F000F000F000F000F000F000F01200A3
:100FAC00620E126E660EE82EFED7122EFCD71200C1
:0F0FBC00000001010202030304040505060707F4
:020000040020DA
:08000000FFFFFFFFFFFFFFFF00
:020000040030CA
:0E000000000C191EFF8181FF0FC00FE00F40A2
:00000001FF
