:020000040000FA
:0400000007EF00F016
:0A000800128218ED05F0C5EF06F0B6
:10080000001F1F1F1F1F1F1F0000564F4C554D4537
:100810004E3A0000F29E93809382F288F18CF2921D
:10082000D09EF28E000E8A6EB1EC06F0010E40EC06
:1008300006F0000E056E000E046E000E076E000E30
:10084000066E99EC06F00A0E046E080E056EF8ECC2
:1008500005F0030E0C6E8A0E0B6E560EE82EFED7B8
:100860000B2EFCD70C2EFAD7010E076E080E086E61
:10087000000E096E7EEC06F00D0E0C6EAF0E0B6EC8
:10088000B60EE82EFED70B2EFCD70C2EFAD700D0D2
:1008900010BE53EF04F0105008E10F04D8A053EF3E
:1008A00004F055EF04F048EF04F0000E056E000E62
:1008B000046E000E076E000E066E99EC06F00A0E2E
:1008C000046E080E056EF8EC05F0030E0C6E8A0E31
:1008D0000B6E560EE82EFED70B2EFCD70C2EFAD739
:1008E000000E0E6E000E0D6E90EF04F0000E056E01
:1008F000010E046E0DC006F00EC007F099EC06F074
:10090000000ECFEC05F0060E0C6E130E0B6EAE0E45
:10091000E82EFED70B2EFCD70C2EFAD70D4A0E2A46
:100920000F500D5C0E50800A0B6E1050800A0B5851
:10093000D8A09DEF04F09FEF04F076EF04F048EFAD
:1009400004F007EF00F0076EF00E8316F00E951618
:10095000959C959A95988C9C8C9A8C98EDEC06F0C9
:10096000300E40EC06F000D000D000F0300E40EC2D
:1009700006F000D000D000F0320E40EC06F01DEC86
:1009800006F00009D8A4C7EF04F0C9EF04F0BFEFE8
:1009900004F01DEC06F00009D8A4D1EF04F0D3EF69
:1009A00004F0C9EF04F0075040EC06F01DEC06F02F
:1009B0000009D8A4DEEF04F0E0EF04F0D6EF04F075
:1009C000080E40EC06F01DEC06F00009D8A4EBEF91
:1009D00004F0EDEF04F0E3EF04F00F0E40EC06F04E
:1009E0001DEC06F00009D8A4F8EF04F0FAEF04F0CB
:1009F000F0EF04F0010E40EC06F01DEC06F00009EB
:100A0000D8A405EF05F007EF05F0FDEF04F0040EA4
:100A100040EC06F01DEC06F00009D8A412EF05F03A
:100A200014EF05F00AEF05F0800EA2EC05F01200BD
:100A30000600F2A21EEF05F020EF05F061EF05F0D1
:100A4000A60EE82EFED700D081B029EF05F02CEFDE
:100A500005F0010E2DEF05F0000E026E81B233EFAE
:100A600005F036EF05F0010E37EF05F0000E021A23
:100A7000D8B43DEF05F03FEF05F043EF05F00F4A26
:100A8000102A61EF05F081B048EF05F04BEF05F05B
:100A9000010E4CEF05F0000E026E81B252EF05F030
:100AA00055EF05F0010E56EF05F0000E021AD8A41E
:100AB0005CEF05F05EEF05F061EF05F00F06D8A0E2
:100AC0001006010E5FEC06F0F29212921100066E13
:100AD0001DEC06F00009D8A470EF05F072EF05F0E8
:100AE00068EF05F0F00E9516F00E83160650036EB3
:100AF000046A400E0312000E0412040E056E043444
:100B000004320332052E7FEF05F003500F0B8312E2
:100B10008C9C8C9A00D000D000F08C8800D000D043
:100B200000F08C98F00E831606500F0B831200D045
:100B300000D000F08C8800D000D000F08C980F0E10
:100B400095121200066EF00E9516F00E83160650E2
:100B5000036E046A800E0312000E0412040E056E6A
:100B6000043404320332052EB0EF05F003500F0BAE
:100B700083128C9C8C9AD3EC06F08C88D3EC06F014
:100B80008C98F00E831606500F0B8312D3EC06F0F0
:100B90008C88D3EC06F08C980F0E95121200036E21
:100BA0001DEC06F00009D8A4D8EF05F0DAEF05F047
:100BB000D0EF05F0F00E9516F00E831603380F0BEC
:100BC0000F0B83128C8A8C9CD3EC06F08C88D3ECB0
:100BD00006F08C98F00E831603500F0B8312D3ECA3
:100BE00006F08C88D3EC06F08C980F0E951212004C
:100BF0000EEF06F01DEC06F00009D8A402EF06F097
:100C000004EF06F0FAEF05F004C0F6FF05C0F7FFA9
:100C10000800F550CFEC05F0044A052A04C0F6FFA1
:100C200005C0F7FF0800F5500009D8A41AEF06F038
:100C30001CEF06F0FAEF05F012008C8C8C9AD3ECC6
:100C400006F08C88D3EC06F083A629EF06F02BEF94
:100C500006F036EF06F08C98D3EC06F08C88D3ECD7
:100C600006F08C988C9C010E3FEF06F08C98D3EC2C
:100C700006F08C88D3EC06F08C988C9C000E120049
:100C8000036EF00E9516F00E831603380F0B0F0B44
:100C900083128C9C8C9AD3EC06F08C88D3EC06F0F3
:100CA0008C98F00E831603500F0B8312D3EC06F0D2
:100CB0008C88D3EC06F08C980F0E95121200016E02
:100CC000F00E9516F00E831601380F0B0F0B8312E2
:100CD0008C9C8C9AE0EC06F08C88E0EC06F08C980A
:100CE000F00E831601500F0B8312E0EC06F08C8897
:100CF000E0EC06F08C980F0E951212000950080DCA
:100D0000F35067EC05F0000E0A6E07C0F6FF08C04E
:100D1000F7FF0800F550CFEC05F0074A082A0A2A29
:100D2000070E0A6496EF06F098EF06F085EF06F0DE
:100D3000120005BEA4EF06F0055008E10404D8A097
:100D4000A4EF06F0A6EF06F0ACEF06F00650C00FD9
:100D500040EC06F0B0EF06F00650800F40EC06F0D5
:100D60001200280EA3EC04F01DEC06F00009D8A434
:100D7000BCEF06F0BEEF06F0B4EF06F0060E40EC56
:100D800006F00C0E40EC06F01200116A106A0F6AB1
:100D90000E6A0D6A12901292000EF86E080EF76E2F
:100DA00000010AEF04F000F000F000F000F000F0A5
:100DB00000F000F000F000F000F000F000F0120091
:100DC00000F000F000F000F000F000F000F000F0A3
:100DD00000F000F000F000F01200620E036E660EEC
:0A0DE000E82EFED7032EFCD7120008
:020000040020DA
:08000000FFFFFFFFFFFFFFFF00
:020000040030CA
:0E000000000C191EFF8181FF0FC00FE00F40A2
:00000001FF
